:020000040000fa
:08000000be0104000000000035
:020000040000fa
:04000800b80100003b
:020000040000fa
:04000c00b801000037
:020000040000fa
:04001000b801000033
:020000040000fa
:04001400b80100002f
:020000040000fa
:04001800b80100002b
:020000040000fa
:04001c00b801000027
:020000040000fa
:04002000b801000023
:020000040000fa
:04002400b80100001f
:020000040000fa
:04002800b80100001b
:020000040000fa
:04002c00b801000017
:020000040000fa
:04003000b801000013
:020000040000fa
:04003400b80100000f
:020000040000fa
:04003800b80100000b
:020000040000fa
:04003c00b801000007
:020000040000fa
:04004000b801000003
:020000040000fa
:04004400b8010000ff
:020000040000fa
:04004800b8010000fb
:020000040000fa
:04004c00b8010000f7
:020000040000fa
:04005000b8010000f3
:020000040000fa
:04005400b8010000ef
:020000040000fa
:04005800b8010000eb
:020000040000fa
:04005c00b8010000e7
:020000040000fa
:04006000b8010000e3
:020000040000fa
:04006400b8010000df
:020000040000fa
:04006800b8010000db
:020000040000fa
:04006c00b8010000d7
:020000040000fa
:04007000b8010000d3
:020000040000fa
:04007400b8010000cf
:020000040000fa
:04007800b8010000cb
:020000040000fa
:04007c00b8010000c7
:020000040000fa
:04008000b8010000c3
:020000040000fa
:04008400b8010000bf
:020000040000fa
:04008800b8010000bb
:020000040000fa
:04008c00b8010000b7
:020000040000fa
:04009000b8010000b3
:020000040000fa
:04009400b8010000af
:020000040000fa
:04009800b8010000ab
:020000040000fa
:04009c00b8010000a7
:020000040000fa
:0400a000b8010000a3
:020000040000fa
:0400a400b80100009f
:020000040000fa
:0400a800b80100009b
:020000040000fa
:0400ac00b801000097
:020000040000fa
:0400b000b801000093
:020000040000fa
:0400b400b80100008f
:020000040000fa
:0400b800b80100008b
:020000040000fa
:0400bc00b801000087
:020000040000fa
:0400c000b801000083
:020000040000fa
:0400c400b80100007f
:020000040000fa
:0400c800b80100007b
:020000040000fa
:0400cc00b801000077
:020000040000fa
:0400d000b801000073
:020000040000fa
:0400d400b80100006f
:020000040000fa
:0400d800b80100006b
:020000040000fa
:0400dc00b801000067
:020000040000fa
:0400e000b801000063
:020000040000fa
:0400e400b80100005f
:020000040000fa
:0400e800b80100005b
:020000040000fa
:0400ec00b801000057
:020000040000fa
:0400f000b801000053
:020000040000fa
:0400f400b80100004f
:020000040000fa
:0400f800b80100004b
:020000040000fa
:0400fc00b801000047
:020000040000fa
:04010000b801000042
:020000040000fa
:04010400b80100003e
:020000040000fa
:04010800b80100003a
:020000040000fa
:04010c00b801000036
:020000040000fa
:04011000b801000032
:020000040000fa
:04011400b80100002e
:020000040000fa
:04011800b80100002a
:020000040000fa
:04011c00b801000026
:020000040000fa
:04012000b801000022
:020000040000fa
:04012400b80100001e
:020000040000fa
:04012800b80100001a
:020000040000fa
:04012c00b801000016
:020000040000fa
:04013000b801000012
:020000040000fa
:04013400b80100000e
:020000040000fa
:04013800b80100000a
:020000040000fa
:04013c00b801000006
:020000040000fa
:04014000b801000002
:020000040000fa
:04014400b8010000fe
:020000040000fa
:04014800b8010000fa
:020000040000fa
:04014c00b8010000f6
:020000040000fa
:04015000b8010000f2
:020000040000fa
:04015400b8010000ee
:020000040000fa
:04015800b8010000ea
:020000040000fa
:04015c00b8010000e6
:020000040000fa
:04016000b8010000e2
:020000040000fa
:04016400b8010000de
:020000040000fa
:04016800b8010000da
:020000040000fa
:04016c00b8010000d6
:020000040000fa
:04017000b8010000d2
:020000040000fa
:04017400b8010000ce
:020000040000fa
:04017800b8010000ca
:020000040000fa
:04017c00b8010000c6
:020000040000fa
:04018000b8010000c2
:020000040000fa
:04018400b8010000be
:020000040000fa
:04018800b8010000ba
:020000040000fa
:04018c00b8010000b6
:020000040000fa
:04019000b8010000b2
:020000040000fa
:04019400b8010000ae
:020000040000fa
:04019800b8010000aa
:020000040000fa
:04019c00b8010000a6
:020000040000fa
:0401a000b8010000a2
:020000040000fa
:0401a400b80100009e
:020000040000fa
:0401a800b80100009a
:020000040000fa
:0401ac00b801000096
:020000040000fa
:0401b000b801000092
:020000040000fa
:0401b400b80100008e
:020000040000fa
:0401b800b80100008a
:020000040000fa
:0401bc00b801000086
:020000040000fa
:0401c000b801000082
:020000040000fa
:0401c400b80100007e
:020000040000fa
:0401c800b80100007a
:020000040000fa
:0401cc00b801000076
:020000040000fa
:0401d000b801000072
:020000040000fa
:0401d400b80100006e
:020000040000fa
:0401d800b80100006a
:020000040000fa
:0401dc00b801000066
:020000040000fa
:0401e000b801000062
:020000040000fa
:0401e400b80100005e
:020000040000fa
:0401e800b80100005a
:020000040000fa
:0401ec00b801000056
:020000040000fa
:0401f000b801000052
:020000040000fa
:0401f400b80100004e
:020000040000fa
:0401f800b80100004a
:020000040000fa
:0401fc00b801000046
:020000040000fa
:100200008a1f78008b1f780000000600a10288007a
:10021000800478000000eb001f003700e2844400f7
:1002200054a0b4009905ba00e284440054a0b4007c
:100230009906ba00e284440054a0b4000006eb0022
:10024000476fde00fd07b200ae018800636ce1007d
:1002500003003a00eaff07000000eb000e00370041
:10026000606ce10008003a00004deb000a05e80070
:10027000020039003420ec000af0a0008b05e900f0
:10028000f9ff3e00040037006168e1000100320020
:100290000086eb000b00070019c7ba001905ba0069
:1002a0000e04e00003003a000a00e000dbff3a0021
:1002b00000000600fe07b200ae0288008a04780043
:1002c000f5ff37000cd0a300e20f4d001c003900f1
:1002d00089027800354dba000a05e80002003900ad
:1002e0003420ec000af0a0008b05e9000f0032007a
:1002f000254dba000a05e800020039003420ec0060
:100300000af0a0008b05e900080032000c00e000b4
:100310000600320015cdba000a05e80002003900d7
:100320003420ec000af0a0008b05e9008984e80085
:1003300054a0b4000b00e000e2ff3a000000060009
:100340009902ba00055d78008b05e900f7ff3200dd
:10035000c82ade00055d78008b05e900f3ff320056
:100360000c00e000f1ff320019ddba00eeff3700ab
:0c0370000040da000000fe000000050064
:020000040000fa
:10037c000f802000007f240000018800ce010200c5
:10038c0000000000dc01020000000000fbff370051
:10039c007a26a9007a46a9006246a8006266a800df
:1003ac007626a9007646a900000006000001200070
:1003bc0001002000027122006666ab00feff3a00cd
:1003cc006666ab00feff3200333380000320a300cf
:1003dc00e0804800c108dd000000e9006000e10099
:1003ec00f5ff3a000208e10002003e00040039006b
:1003fc00060032007a26a8007a46a90006003700cb
:10040c007a26a8007a46a800030037007a26a900ad
:0c041c007a46a80000003700000006002f
:00000001FF
